:020000040800F2
:100000004807002091010008031600082515000884
:1000100001160008D5050008811600080000000040
:1000200000000000000000000000000007160008AB
:100030000F06000800000000051600080916000859
:10004000AB010008AB010008AB010008AB010008E0
:10005000AB010008AB010008AB010008AB010008D0
:10006000AB010008AB010008AB010008D90500088E
:10007000AB010008AB010008AB010008AB010008B0
:10008000AB010008AB010008AB010008AB010008A0
:10009000AB010008AB010008AB010008AB01000890
:1000A000AB010008AB010008AB010008AB01000880
:1000B000AB010008AB010008AB010008AB01000870
:1000C000AB010008AB010008AB010008AB01000860
:1000D000AB010008AB010008AB010008AB01000850
:1000E000AB010008AB010008AB01000800F002F80A
:1000F00000F03FF80AA090E8000C82448344AAF183
:100100000107DA4501D100F034F8AFF2090EBAE880
:100110000F0013F0010F18BFFB1A43F0010318473B
:100120003C1900005C190000103A24BF78C878C15F
:10013000FAD8520724BF30C830C144BF04680C60ED
:10014000704700000023002400250026103A28BF35
:1001500078C1FBD8520728BF30C148BF0B60704739
:10016000642900F07D80002070471FB51FBD10B5C9
:1001700010BD00F052F91146FFF7F7FF01F0D4FB74
:1001800000F070F903B4FFF7F2FF03BC00F078F958
:100190000948804709480047FEE7FEE7FEE7FEE71B
:1001A000FEE7FEE7FEE7FEE7FEE7FEE70448054957
:1001B000054A064B704700007F160008ED00000856
:1001C0004801002048070020480300204803002081
:1001D0000FB41CB5074B06AA7B44694600900598EE
:1001E00000F003F90020694600F012F91CBC5DF82C
:1001F00014FB0000350200002DE9F0410E460446D4
:10020000002020622046E168884730B3252805D0C9
:10021000D4E901219047206A401CF2E7E1682046BA
:1002200000278847050018D0A5F14100192802D8F9
:1002300020354FF400673246294620462760FFF7F5
:100240008FFF40B1012804D0F61D26F007060836BE
:10025000D8E7361DD6E72846DAE7206ABDE8F08100
:100260002DE9F0410646002410687529314616A58F
:1002700010D0AFF30080002802DA404213A507E057
:1002800031688A0701D512A502E0490704D511A5F6
:10029000012401E0AFF3008000210A2206F12407C7
:1002A00009E0B0FBF2FCB0FBF2F302FB1C003030C3
:1002B00078541846491C0028F3D123462A46304674
:1002C000BDE8F04100F032B8000000002D00000051
:1002D0002B000000200000004FF0000200B5134684
:1002E00094469646203922BFA0E80C50A0E80C5056
:1002F000B1F12001BFF4F7AF090728BFA0E80C5007
:1003000048BF0CC05DF804EB890028BF40F8042BFF
:1003100008BF704748BF20F8022B11F0804F18BF6C
:1003200000F8012B70477047704770472DE9F04780
:100330000D4699469246044600F124080168880655
:1003400004D5E06921F01001216000E00120A842FD
:1003500001DD471B00E00027A1697A1902EB0900C3
:10036000081AA0612078C00602D42046AFF30080AE
:10037000002608E0D4E901211AF806009047206A17
:10038000401C761C20624E45F4DB2078C0060AD55E
:100390002046AFF3008006E0D4E9012130209047E9
:1003A000206A401C2062381EA7F10107F4DC07E038
:1003B000D4E9012118F805009047206A401C20620A
:1003C000281EA5F10105F3DC2046AFF3008020785C
:1003D000000602D50220BDE8F0870120FBE70000FF
:1003E00001694A1C02610878704700B58FB0CDE9F9
:1003F00001310021059105497944CDE903101146E9
:100400006846FFF7F9FE0FB000BD0000E5FFFFFFF3
:100410000A6802F8010B0A607047754600F02CF874
:10042000AE4605006946534620F00700854618B0E1
:1004300020B5FFF7BBFEBDE820404FF000064FF0AF
:1004400000074FF000084FF0000B21F00701AC4609
:10045000ACE8C009ACE8C009ACE8C009ACE8C00928
:100460008D46704710B50446AFF300802046BDE8C6
:100470001040FFF787BE000000487047E8000020EA
:1004800001491820ABBEFEE72600020070470000BD
:1004900070B5044600688168C943C90717D18168EF
:1004A00021F00101816000F0B9FC05460AE000BFBF
:1004B00000F0B4FC401B022804D920688068C043C7
:1004C000C00706D020688068C043C007F0D0002075
:1004D00070BDA06A40F01000A062E06A40F0010028
:1004E000E062012070BD10B50146406A826A12F0D8
:1004F000500F05D0006A026BBDE810400846104757
:10050000816A41F40071816201688968C1F34241E6
:1005100007290CD1017B51B9816A21F48071816274
:10052000816AC90403D4816A41F00101816200F04B
:10053000EFF810BD10B5406A816A41F04001816258
:10054000C16A41F00401C16200F0F3F810BD10B5BA
:10055000406A00F0EDF810BDF8B50026044600969C
:1005600000688168C943C9072DD0816841F0010145
:100570008160164816490068B0FBF1F000E0401EAB
:1005800000900028FBD100F049FC054616E000BFB2
:1005900000F044FC401B022810D920688068C0434A
:1005A000C0070BD0A06A40F01000A062E06A40F0E3
:1005B0000100E06284F824600120F8BD20688068B2
:1005C000C043C007E4D10020F8BD00007000002047
:1005D00040420F00FEE70000014800F007BA0000AB
:1005E000A400002030B590F840500124AC40C56B09
:1005F0006C60046863604368102B036803D09960E3
:100600000068C26030BD9A600068C16030BD70474C
:1006100072B6FEE7F8B50024009490F82420254631
:10062000012A12D0012280F824204A681F23072AB9
:100630000DD20668776B521E02EB820293409F43F5
:100640000B6893401F43776319E00220F8BD0668EA
:100650000D2A0AD2376BD21F02EB820293409F43CE
:100660000B6893401F43376309E0F76A0D3A02EBCA
:10067000820293409F430B6893401F43F7620A68CE
:10068000072306680A2A0AD3F7680A3A02EB4202ED
:1006900093409F438B6893401F43F76008E037699E
:1006A00002EB420293409F438B6893401F433761A4
:1006B0000A68102A01D0112A20D1124B02689A42EE
:1006C00017D193681B0219D4936843F40003936015
:1006D0000968102912D10C490C4A0968B1FBF2F1E2
:1006E00001EB8101490000E0491E00910029FBD186
:1006F00004E0816A41F020018162012480F82450E5
:100700002046F8BD002401407000002040420F0048
:1007100000680549884206D10448A0F10801026832
:100720000A60406848607047002401400C000020C7
:10073000704770472DE9F0414FF0000704003D4637
:100740007ED0A06A002628B9E66284F8246020469C
:1007500000F07EF82046FFF79BFEA16AC90600D490
:1007600020B1A06A40F01000A06269E0A16A21F403
:10077000885141F00201A1626268E169237B0A436A
:1007800047EA43010A43A1684FF48077B94209D090
:10079000012907D05FF0000194F814C0BCF1010FEB
:1007A00002D00AE03946F7E7F3B1A36A43F0200329
:1007B000A362E36A43F00103E3622368D3F804C051
:1007C0002CF4694C4CEA010CC3F804C021688B6816
:1007D000DFF870C003EA0C0313438B60A168B942D1
:1007E0000BD0012909D00CE0DFF85CC0A3690CEB49
:1007F00043330B4343F40061DFE7218A0D05A5F580
:1008000080152168CB6A23F470032B43CB622168E7
:1008100089680E4B1940914208D1E662A16A21F025
:10082000020141F00101A162BDE8F081A06A20F05F
:10083000020040F01000A062E06A40F00100E062B7
:100840000120F1E7FDF7E1FF00E0FFFFFE0E1FFFD3
:1008500070B586B00026054600960196029603966E
:1008600000681A4988422ED11949886940F40070FD
:100870008861886900F400700490886940F008007D
:1008800088618869694600F00800049003200090A0
:100890000190104800F0CCF9104C0F48C4E9000654
:1008A0008020C4E902608000206180006061202017
:1008B000A061C001E061204600F042F908B1FFF7F5
:1008C000A7FE2C62656206B070BD000000240140E6
:1008D00000100240000C014008000240A40000206B
:1008E0002DE9F047894604463B4900683B4F0E1D01
:1008F0009046884201D0B84207D1306810F4702F7A
:1009000003D001252846BDE8F08794F8240001288B
:100910000CD0012084F824002046FFF71DFE0500BE
:100920004FF0000004D084F82400EBE70220EAE74F
:10093000A16A40F60162914341F48071A16221688D
:10094000B94218D1326812F4702F14D0A16A41F460
:100950008011A1623168490505D5A16A21F40051D1
:1009600041F48051A162A16AC9040AD5E16A21F06B
:100970000601E16206E0A26A22F48012A2624968DE
:10098000E9E7E06284F82400216A15488862216A58
:100990001448C862216A1448086321686FF0020095
:1009A00008602068816841F4807181602168434655
:1009B0004A464C31206A00F0F1F820688168C1F3A2
:1009C00042410729816803D041F48011816099E791
:1009D00041F4A001FAE70000002401400028014092
:1009E000E70400084F050008350500082DE9F05F11
:1009F000C16B0C6801680B68D0F840C0042202FA91
:100A00000CF2494DDFF824A1494E4A4FDFF828B1D6
:100A1000DFF828E122422CD05A072AD50A6892062C
:100A200003D40A6822F004020A600168A94201D1D5
:100A3000042219E0514501D1402215E0B14202D112
:100A40004FF4806210E0B94202D14FF480420BE0D3
:100A5000594502D14FF4802206E0714502D14FF48E
:100A6000800201E04FF080622F4908394A60C16A74
:100A70003BE04FF0020808FA0CF818EA040F4FF0B8
:100A800000094FF0010235D05FEA837832D50B6858
:100A90009B0605D40B6823F00A030B6080F8212025
:100AA0000168A94201D1022219E0514501D1202259
:100AB00015E0B14202D14FF4007210E0B94202D108
:100AC0004FF400520BE0594502D14FF4003206E0DA
:100AD000714502D14FF4001201E04FF0007212494B
:100AE00008394A6080F82090816A00291AD0BDE850
:100AF000F05F0847082505FA0CF5254212D01B07C0
:100B000010D50B6823F00E030B6090F84010C36BF8
:100B100002FA01F15960826380F8212080F8209068
:100B2000016BE2E7BDE8F09F080002401C000240B4
:100B30003000024044000240580002406C00024075
:100B400030B528B308C8134914221944B1FBF2F197
:100B50008900C16310498163022141771A6843F615
:100B6000F0718A43D0E900142143D0E902452C43B7
:100B7000214304692143446921438469214311438A
:100B8000196000214163012242770177084630BD98
:100B9000012030BDF8FFFDBF0000024070B50446E3
:100BA00090F82000002501280CD0012084F82000B6
:100BB00094F821600020012E06D084F82000022540
:100BC000284670BD022070BD022684F82160A06313
:100BD0002068066826F0010606602046FFF702FD41
:100BE000E06A00282068016802D041F00E0106E0AA
:100BF00021F0040101602068016841F00A010160F0
:100C00002068016841F001010160D9E770B5044630
:100C100000F004F90546601C02D004480078044442
:100C200000F0FCF8401BA042FAD370BD6400002025
:100C30002DE9F84FDFF8B891002409F1040A0AF110
:100C4000040B23460F270BF1040EC9E00125A54034
:100C50002A40AA427DD1674ED1F804C0ACEB060809
:100C6000B44532D014DCBCF1030F3AD009DCBCF13E
:100C7000000F2AD0BCF1010F1CD0BCF1020F31D102
:100C80001DE0BCF1110F17D0BCF1120F2AD119E0F1
:100C9000B8F5881F19D006DCB8F5803F15D0B8F537
:100CA000801F1FD111E0B8F5001F0ED0B8F5041F4A
:100CB00018D10AE0CB6815E0CB681B1D12E0CB68A9
:100CC00008330FE0CB680C330CE08B682BB1012BA1
:100CD0004FF0080303D0456104E0042302E00561FE
:100CE00000E00023FF2A01D8064601E000F10406D7
:100CF0004FEA840501D9A5F12005D6F8008007FA4E
:100D000005FC28EA0C0803FA05F548EA0508C6F8C8
:100D100000804D68ED0062D5374DAE6946F00106A2
:100D2000AE61AD6924F0030605F001050095334D71
:100D300006EB050CDCF80850A607360F07FA06F894
:100D400025EA0805DFF8B880404503D14FF00008D8
:100D500017E044E0DFF8AC80404502D14FF00108D5
:100D60000FE0DFF8A480404502D14FF0020808E010
:100D7000DFF89880404502D14FF0030801E04FF0C2
:100D8000040808FA06F848EA0508CCF808804D6817
:100D9000D9F80060ED034D4601D5164300E09643B7
:100DA0002E604D68DAF80060AD03554601D5164354
:100DB00000E096432E604D68DBF80060ED025D4672
:100DC00001D5164300E096432E604D68DEF80060C2
:100DD000AD02754601D5164300E096432E60641CB3
:100DE0000D682A46E5407FF431AFBDE8F88F00007A
:100DF00000040140000011100010024000000140FA
:100E000000080140000C01400010014000140140A6
:100E10000AB1016170470904FBE7000001488068DE
:100E20007047000064000020024881680278114485
:100E30008160704764000020074810B5016841F0E8
:100E400010010160032000F075F80F2000F006F893
:100E500000F024F8002010BD0020024070B50D4DB8
:100E600004464FF47A712878B1FBF0F00A4909681A
:100E7000B1FBF0F000F042FB48B9102C07D2002281
:100E80002146501E00F036F800206C6070BD012035
:100E900070BD000064000020700000200C4808B500
:100EA000816941F001018161816901F001010091D5
:100EB000C16941F08051C161C06900F0805000906B
:100EC0000448416821F0E06141F00071416008BDD3
:100ED0000010024000000140002809DB00F01F0262
:100EE000012191404009800000F1E020C0F800118C
:100EF00070470000F0B40E4B1B680C46C3F302238E
:100F0000C3F10705042D00D90425191D072901D2B5
:100F1000002300E0DB1E012606FA05F1491E2140F0
:100F200099409E40761E16403143F0BC00F0A9BBAC
:100F30000CED00E0064900F0070208684FF6FF03D9
:100F4000184040EA0220034A10430860704700003E
:100F50000CED00E00000FA052DE9F84305460078A5
:100F6000354CC00754D0E0690026C00008D4E069C1
:100F700040F08050E061E069012600F08050009070
:100F80002E480168C90512D40168804641F4807179
:100F90000160FFF743FF074605E000BFFFF73EFF94
:100FA000C01B642823D8D8F80000C005F6D5206AF5
:100FB00010F4407021D0A98801F4407181421CD006
:100FC000206A1F49012220F440700A6000220A6052
:100FD0002062C00711D0FFF721FF074641F2883891
:100FE00008E000BFFFF71AFFC11B414502D90320EB
:100FF000BDE8F883206A8007F4D5206A696820F488
:101000004070084320621EB1E06920F08050E0612A
:101010002878800705D56068A96820F44040084317
:1010200060602878C00605D56068E96820F4800013
:10103000084360600020DBE70010024000700040C1
:10104000400442422DE9F0470F46050061D0434E6F
:10105000306800F00700B84209D2306820F007007D
:1010600038433060306800F00700B84251D128683A
:101070003B4C810712D5400703D5606840F4E0601F
:1010800060602878000703D5606840F460506060B5
:101090006068A96820F0F000084360602878C00705
:1010A00028D06868012810D02168022810D089074C
:1010B00000292EDA616821F0030101436160FFF726
:1010C000ADFE804641F288390DE021688903EFE7E3
:1010D0008901EDE7FFF7A2FEA0EB0801494502D91F
:1010E0000320BDE8F0876068696800F00C00B0EB91
:1010F000810FEFD1306800F00700B8420BD930689B
:1011000020F0070038433060306800F00700B84234
:1011100001D00120E5E72878400705D56068E96837
:1011200020F4E060084360602878000706D5606816
:10113000296920F4605040EAC100606000F018F8AE
:101140006168084AC1F30311515CC8400649086050
:1011500006480068FFF782FE0020C2E70020024038
:10116000001002404C1A00087000002068000020A7
:1011700012A185B00FC98DE80F0014A0144A0068B1
:1011800004905168134801F00C03042B10D0082B75
:101190000ED1C1F38343C9031DF803000AD551687A
:1011A00004AAC1F34041515C0A4A5043B0FBF1F03C
:1011B00005B0704708494843FAE7000002030405F8
:1011C000060708090A0B0C0D0E0F10100102000093
:1011D0000010024000127A0000093D002DE9F84F8E
:1011E000040070D02078C04DC00749D06868C0F3B3
:1011F0008100012807D06868C0F38100022809D166
:101200006868C00306D52868800339D5606800285F
:10121000E7D035E06068B0F5803F0BD010B1B0F595
:10122000A02F11D0286820F480302860286820F48E
:10123000802002E0286840F480302860606890B127
:10124000FFF7ECFD06460AE0286840F4802028609D
:10125000F0E700BFFFF7E2FD801B642873D8286821
:101260008003F7D50CE0FFF7D9FD064605E000BF87
:10127000FFF7D4FD801B6428F0D828688003F7D4DA
:1012800020789A4E80074FF001094FF0000839D5B9
:10129000686810F00C0F07D06868C0F3810002285E
:1012A00009D16868C00306D42868800714D520696E
:1012B000012808D110E02069B0B1C6F80090FFF70E
:1012C000ADFD074605E00AE1FFF7A8FDC01B0228B7
:1012D000C4D828688007F7D52868616920F0F8002D
:1012E00040EAC10028600DE0C6F80080FFF796FDD7
:1012F000074604E0FFF792FDC01B022823D82868A8
:101300008007F7D4207800072CD57948A169D9B196
:10131000C0F80090FFF782FD074604E0FFF77EFD6E
:10132000C01B02280FD8686A8007F7D571484FF4B0
:10133000FA510068B0FBF1F0009000BF0098411E28
:101340000091FAD20EE080E0C0F80080FFF766FD61
:10135000074604E0FFF762FDC01B022875D8686AE3
:101360008007F7D42078400760D5E8690027C000DF
:1013700008D4E86940F08050E861E869012700F08E
:10138000805000905C480168C90513D40168834609
:1013900041F480710160FFF741FD824606E000BF25
:1013A000FFF73CFDA0EB0A0064284ED8DBF80000F4
:1013B000C005F5D5E06801280AD008B1052813D08A
:1013C000286A20F001002862286A20F0040002E068
:1013D000286A40F001002862E06841F2883B98B139
:1013E000FFF71CFD82460BE0286A40F004002862EB
:1013F000EEE700BFFFF712FDA0EB0A0159455AD8EE
:10140000286A8007F6D50CE0FFF708FD824605E064
:10141000FFF704FDA0EB0A0159454CD8286A800764
:10142000F6D41FB1E86920F08050E861E06988B324
:101430006968C1F38101022944D00228C6F860809E
:1014400004D0FFF7EBFC044638E034E0FFF7E6FC9D
:10145000074604E0FFF7E2FCC01B02282BD82868EF
:101460008001F7D4206AB0F5803F05D16868A16893
:1014700020F4003008436860D4E908010843696833
:1014800021F4741108436860C6F86090FFF7C6FC49
:10149000044606E025E000BFFFF7C0FC001B022861
:1014A00009D828688001F7D51BE000BFFFF7B6FC1C
:1014B000001B022802D90320BDE8F88F28688001AC
:1014C000F4D40EE00128F7D06868226A00F4803175
:1014D000914204D1616A00F47010884201D0012069
:1014E000EAE70020E8E70000001002400000424266
:1014F00080044242700000200070004010B5401E81
:10150000B0F1807F01D3012010BD4FF0E024606175
:101510000F21601700F0B5F80020A06107202061BE
:10152000002010BDFEE700003EB5002117480091E5
:101530000191154A029102609215826001240473A0
:10154000017502254FF460220561C2614160FFF719
:10155000F1F808B172B6FEE70820CDE900040520D5
:10156000029069460948FFF755F808B172B6FEE7E0
:101570000920CDE9000569460448FFF74BF800282B
:1015800001D072B6FEE73EBD002401407400002089
:1015900030B585B000241848009401940294039457
:1015A000816941F020018161816901F0200104918C
:1015B000816941F004018161816901F004010491B4
:1015C000816941F00801816180690C4D00F00800DB
:1015D00004900022F6212846FFF71AFCF62000901E
:1015E0000120CDE901040220039069462846FFF757
:1015F0001FFB05B030BD0000001002400008014094
:10160000FEE7FEE770477047FFF70EBC30B593B0BA
:1016100028216846FEF760FE14210AA8FEF75CFE4A
:10162000002401200F9410941194010412948DE869
:1016300013000490C004CDE9081002250795684600
:10164000FFF7CCFD08B172B6FEE70F200A90CDE996
:101650000B540D9401210AA80E94FFF7F3FC08B176
:1016600072B6FEE74FF4804011900F950FA8FFF778
:1016700073FC002801D072B6FEE713B030BD70478E
:10168000FEE70907090E002804DB00F1E02080F8DE
:101690000014704700F00F0000F1E02080F8141DE6
:1016A000704700002DE9F04F364A0346106840F0BD
:1016B0000400106033494FF002080831C1F800807F
:1016C00010240C6020250D6040260E6080270F60DE
:1016D00000F0D0F8106840F0020010602A4AD806E6
:1016E00001D5146002E04FF48010106098064FF4AA
:1016F000001901D5156001E0C2F8009058064FF4BA
:10170000800A01D5166001E0C2F800A018064FF467
:10171000000B01D5176001E0C2F800B000F0AAF894
:10172000C1F800800C600D600E600F6000F0A2F840
:101730001448D0F800C04CF0020CC0F800C0D80724
:1017400001D0146002E04FF480101060980701D5BA
:10175000156001E0C2F80090580701D5166001E05D
:10176000C2F800A0180701D5176001E0C2F800B068
:1017700000F080F8C1F800800C600D600E600F6012
:10178000BDE8F08F0C080140100801402DE9F04F32
:1017900037490346042008604FF00209C1F8009061
:1017A00010240C6020250D6040260E6080270F60FD
:1017B00000F060F8DFF8B880A8F10808D8F8002039
:1017C00042F00202C8F80020D8064FF4801A08F14F
:1017D000040201D5146001E0C2F800A098064FF49D
:1017E000001B01D5156001E0C2F800B0580601D514
:1017F000166002E04FF480001060180601D51760F3
:1018000002E04FF40000106000F034F8C1F80090DE
:101810000C600D600E600F6000F02CF8D8F800C06E
:101820004CF0020CC8F800C0D80701D0146001E0E9
:10183000C2F800A0980701D5156001E0C2F800B019
:10184000580701D5166002E04FF4800010601807B9
:1018500001D5176002E04FF40000106000F00AF8B4
:10186000C1F800900C600D600E600F60BDE8F08F55
:10187000140801404FF47A70401EFDD170470128D2
:1018800005D0022805D1BF31C8B2FFF77FBF7F3135
:10189000FAE7704770B5064614460D46FA20FFF782
:1018A000B5F90220FFF772FF3220FFF7AFF92E43A0
:1018B000264346F02000FFF769FF3220FFF7A6F924
:1018C0000620FFF763FF3220FFF7A0F90E20FFF795
:1018D0005DFF3220FFF79AF90C20FFF757FF322007
:1018E000FFF794F90120FFF751FFBDE87040642035
:1018F000FFF78CB910B5044606E000BFFFF7BAFF4A
:1019000014F8010BFFF7CEFE20780028F6D1BDE8D1
:101910001040FFF7AFBF10B51446FFF7B0FF2046E9
:10192000BDE81040FFF7E6BF08B5FFF785FAFFF7FF
:101930006DFEFFF72DFE2F48416941F00101416125
:101940004069002200F00100009011460B20FFF7D3
:10195000D1FA0B20FFF7C0FAFFF7E6FD00210822BD
:101960000846FFF797FF6420FFF750F9012122A2F4
:101970000846FFF7D0FF24A201210220FFF7CBFF8A
:101980004FF47A763046FFF741F902222149224886
:10199000FEF7A6FF1F4D083D2C1F1E481FA1083053
:1019A0002A68FEF715FC1B4821A128306A68FEF75B
:1019B0000FFC184A012108320846FFF7ACFF154A10
:1019C000012128320220FFF7A6FF6420FFF71EF94D
:1019D00022681048521C1BA148302260FEF7F8FB19
:1019E0000C4A082148320220FFF795FF3046FFF7E6
:1019F0000DF9D2E700100240416463205579677504
:101A00006C616D617369200044656765726C657215
:101A10003A0000000C0000207400002041313D25F8
:101A200064202020202020202020202020200000B2
:101A300041323D256420202020202020202020200D
:101A40002020000020743D256400000000000000FC
:101A50000000000001020304060708097C1A0008C0
:101A6000000000207400000028010008F01A00089F
:101A700074000020D40600004401000800000000AB
:101A80000000000000000000000000000000000056
:101A90002000000000000000000000000000000026
:101AA0000000000000000000000000000000000036
:101AB0002000000000000000000000000000000006
:101AC0000000000000000000000000000000000016
:101AD00020000000000000000000000000000000E6
:101AE0000100000010000000000000000024F400CD
:04000005080000ED02
:00000001FF
